{
  "contractName": "TBE",
  "abi": [
    {
      "inputs": [
        {
          "internalType": "uint256",
          "name": "_supply",
          "type": "uint256"
        }
      ],
      "stateMutability": "nonpayable",
      "type": "constructor"
    },
    {
      "anonymous": false,
      "inputs": [
        {
          "indexed": true,
          "internalType": "address",
          "name": "owner",
          "type": "address"
        },
        {
          "indexed": true,
          "internalType": "address",
          "name": "spender",
          "type": "address"
        },
        {
          "indexed": false,
          "internalType": "uint256",
          "name": "value",
          "type": "uint256"
        }
      ],
      "name": "Approval",
      "type": "event"
    },
    {
      "anonymous": false,
      "inputs": [
        {
          "indexed": true,
          "internalType": "address",
          "name": "from",
          "type": "address"
        },
        {
          "indexed": true,
          "internalType": "address",
          "name": "to",
          "type": "address"
        },
        {
          "indexed": false,
          "internalType": "uint256",
          "name": "value",
          "type": "uint256"
        }
      ],
      "name": "Transfer",
      "type": "event"
    },
    {
      "inputs": [
        {
          "internalType": "address",
          "name": "",
          "type": "address"
        }
      ],
      "name": "SpamCount",
      "outputs": [
        {
          "internalType": "uint256",
          "name": "",
          "type": "uint256"
        }
      ],
      "stateMutability": "view",
      "type": "function",
      "constant": true
    },
    {
      "inputs": [
        {
          "internalType": "address",
          "name": "owner",
          "type": "address"
        },
        {
          "internalType": "address",
          "name": "spender",
          "type": "address"
        }
      ],
      "name": "allowance",
      "outputs": [
        {
          "internalType": "uint256",
          "name": "",
          "type": "uint256"
        }
      ],
      "stateMutability": "view",
      "type": "function",
      "constant": true
    },
    {
      "inputs": [
        {
          "internalType": "address",
          "name": "spender",
          "type": "address"
        },
        {
          "internalType": "uint256",
          "name": "amount",
          "type": "uint256"
        }
      ],
      "name": "approve",
      "outputs": [
        {
          "internalType": "bool",
          "name": "",
          "type": "bool"
        }
      ],
      "stateMutability": "nonpayable",
      "type": "function"
    },
    {
      "inputs": [
        {
          "internalType": "address",
          "name": "account",
          "type": "address"
        }
      ],
      "name": "balanceOf",
      "outputs": [
        {
          "internalType": "uint256",
          "name": "",
          "type": "uint256"
        }
      ],
      "stateMutability": "view",
      "type": "function",
      "constant": true
    },
    {
      "inputs": [],
      "name": "decimals",
      "outputs": [
        {
          "internalType": "uint8",
          "name": "",
          "type": "uint8"
        }
      ],
      "stateMutability": "view",
      "type": "function",
      "constant": true
    },
    {
      "inputs": [
        {
          "internalType": "address",
          "name": "spender",
          "type": "address"
        },
        {
          "internalType": "uint256",
          "name": "subtractedValue",
          "type": "uint256"
        }
      ],
      "name": "decreaseAllowance",
      "outputs": [
        {
          "internalType": "bool",
          "name": "",
          "type": "bool"
        }
      ],
      "stateMutability": "nonpayable",
      "type": "function"
    },
    {
      "inputs": [
        {
          "internalType": "address",
          "name": "spender",
          "type": "address"
        },
        {
          "internalType": "uint256",
          "name": "addedValue",
          "type": "uint256"
        }
      ],
      "name": "increaseAllowance",
      "outputs": [
        {
          "internalType": "bool",
          "name": "",
          "type": "bool"
        }
      ],
      "stateMutability": "nonpayable",
      "type": "function"
    },
    {
      "inputs": [
        {
          "internalType": "address",
          "name": "",
          "type": "address"
        }
      ],
      "name": "isBanned",
      "outputs": [
        {
          "internalType": "bool",
          "name": "",
          "type": "bool"
        }
      ],
      "stateMutability": "view",
      "type": "function",
      "constant": true
    },
    {
      "inputs": [],
      "name": "name",
      "outputs": [
        {
          "internalType": "string",
          "name": "",
          "type": "string"
        }
      ],
      "stateMutability": "view",
      "type": "function",
      "constant": true
    },
    {
      "inputs": [
        {
          "internalType": "address",
          "name": "",
          "type": "address"
        }
      ],
      "name": "rewardCount",
      "outputs": [
        {
          "internalType": "uint256",
          "name": "",
          "type": "uint256"
        }
      ],
      "stateMutability": "view",
      "type": "function",
      "constant": true
    },
    {
      "inputs": [],
      "name": "symbol",
      "outputs": [
        {
          "internalType": "string",
          "name": "",
          "type": "string"
        }
      ],
      "stateMutability": "view",
      "type": "function",
      "constant": true
    },
    {
      "inputs": [],
      "name": "totalSupply",
      "outputs": [
        {
          "internalType": "uint256",
          "name": "",
          "type": "uint256"
        }
      ],
      "stateMutability": "view",
      "type": "function",
      "constant": true
    },
    {
      "inputs": [
        {
          "internalType": "address",
          "name": "recipient",
          "type": "address"
        },
        {
          "internalType": "uint256",
          "name": "amount",
          "type": "uint256"
        }
      ],
      "name": "transfer",
      "outputs": [
        {
          "internalType": "bool",
          "name": "",
          "type": "bool"
        }
      ],
      "stateMutability": "nonpayable",
      "type": "function"
    },
    {
      "inputs": [
        {
          "internalType": "address",
          "name": "sender",
          "type": "address"
        },
        {
          "internalType": "address",
          "name": "recipient",
          "type": "address"
        },
        {
          "internalType": "uint256",
          "name": "amount",
          "type": "uint256"
        }
      ],
      "name": "transferFrom",
      "outputs": [
        {
          "internalType": "bool",
          "name": "",
          "type": "bool"
        }
      ],
      "stateMutability": "nonpayable",
      "type": "function"
    },
    {
      "inputs": [
        {
          "internalType": "address",
          "name": "",
          "type": "address"
        }
      ],
      "name": "uploadCount",
      "outputs": [
        {
          "internalType": "uint256",
          "name": "",
          "type": "uint256"
        }
      ],
      "stateMutability": "view",
      "type": "function",
      "constant": true
    },
    {
      "inputs": [],
      "name": "UploadBook",
      "outputs": [
        {
          "internalType": "uint256",
          "name": "",
          "type": "uint256"
        }
      ],
      "stateMutability": "nonpayable",
      "type": "function"
    },
    {
      "inputs": [],
      "name": "BuyBook",
      "outputs": [
        {
          "internalType": "uint256",
          "name": "",
          "type": "uint256"
        }
      ],
      "stateMutability": "nonpayable",
      "type": "function"
    },
    {
      "inputs": [],
      "name": "uploadCountofUser",
      "outputs": [
        {
          "internalType": "uint256",
          "name": "",
          "type": "uint256"
        }
      ],
      "stateMutability": "view",
      "type": "function",
      "constant": true
    },
    {
      "inputs": [],
      "name": "booksTillReward",
      "outputs": [
        {
          "internalType": "uint256",
          "name": "",
          "type": "uint256"
        }
      ],
      "stateMutability": "view",
      "type": "function",
      "constant": true
    },
    {
      "inputs": [
        {
          "internalType": "address",
          "name": "person",
          "type": "address"
        }
      ],
      "name": "removeSpamBooks",
      "outputs": [
        {
          "internalType": "bool",
          "name": "",
          "type": "bool"
        }
      ],
      "stateMutability": "payable",
      "type": "function",
      "payable": true
    }
  ],
  "bytecode": "0x60806040523480156200001157600080fd5b5060405162002cbc38038062002cbc833981810160405281019062000037919062000461565b6040518060400160405280601081526020017f54657874426f6f6b45786368616e6765000000000000000000000000000000008152506040518060400160405280600581526020017f54455845580000000000000000000000000000000000000000000000000000008152508160039080519060200190620000bb92919062000371565b508060049080519060200190620000d492919062000371565b5050506200011333620000ec620001e560201b60201c565b600a620000fa919062000623565b8362000107919062000674565b620001ee60201b60201c565b33600960006101000a81548173ffffffffffffffffffffffffffffffffffffffff021916908373ffffffffffffffffffffffffffffffffffffffff1602179055506000600560003373ffffffffffffffffffffffffffffffffffffffff1673ffffffffffffffffffffffffffffffffffffffff16815260200190815260200160002081905550600a600660003373ffffffffffffffffffffffffffffffffffffffff1673ffffffffffffffffffffffffffffffffffffffff168152602001908152602001600020819055505062000848565b60006012905090565b600073ffffffffffffffffffffffffffffffffffffffff168273ffffffffffffffffffffffffffffffffffffffff16141562000261576040517f08c379a0000000000000000000000000000000000000000000000000000000008152600401620002589062000736565b60405180910390fd5b62000275600083836200036760201b60201c565b806002600082825462000289919062000758565b92505081905550806000808473ffffffffffffffffffffffffffffffffffffffff1673ffffffffffffffffffffffffffffffffffffffff1681526020019081526020016000206000828254620002e0919062000758565b925050819055508173ffffffffffffffffffffffffffffffffffffffff16600073ffffffffffffffffffffffffffffffffffffffff167fddf252ad1be2c89b69c2b068fc378daa952ba7f163c4a11628f55a4df523b3ef83604051620003479190620007c6565b60405180910390a362000363600083836200036c60201b60201c565b5050565b505050565b505050565b8280546200037f9062000812565b90600052602060002090601f016020900481019282620003a35760008555620003ef565b82601f10620003be57805160ff1916838001178555620003ef565b82800160010185558215620003ef579182015b82811115620003ee578251825591602001919060010190620003d1565b5b509050620003fe919062000402565b5090565b5b808211156200041d57600081600090555060010162000403565b5090565b600080fd5b6000819050919050565b6200043b8162000426565b81146200044757600080fd5b50565b6000815190506200045b8162000430565b92915050565b6000602082840312156200047a576200047962000421565b5b60006200048a848285016200044a565b91505092915050565b7f4e487b7100000000000000000000000000000000000000000000000000000000600052601160045260246000fd5b60008160011c9050919050565b6000808291508390505b60018511156200052157808604811115620004f957620004f862000493565b5b6001851615620005095780820291505b80810290506200051985620004c2565b9450620004d9565b94509492505050565b6000826200053c57600190506200060f565b816200054c57600090506200060f565b81600181146200056557600281146200057057620005a6565b60019150506200060f565b60ff84111562000585576200058462000493565b5b8360020a9150848211156200059f576200059e62000493565b5b506200060f565b5060208310610133831016604e8410600b8410161715620005e05782820a905083811115620005da57620005d962000493565b5b6200060f565b620005ef8484846001620004cf565b9250905081840481111562000609576200060862000493565b5b81810290505b9392505050565b600060ff82169050919050565b6000620006308262000426565b91506200063d8362000616565b92506200066c7fffffffffffffffffffffffffffffffffffffffffffffffffffffffffffffffff84846200052a565b905092915050565b6000620006818262000426565b91506200068e8362000426565b9250817fffffffffffffffffffffffffffffffffffffffffffffffffffffffffffffffff0483118215151615620006ca57620006c962000493565b5b828202905092915050565b600082825260208201905092915050565b7f45524332303a206d696e7420746f20746865207a65726f206164647265737300600082015250565b60006200071e601f83620006d5565b91506200072b82620006e6565b602082019050919050565b6000602082019050818103600083015262000751816200070f565b9050919050565b6000620007658262000426565b9150620007728362000426565b9250827fffffffffffffffffffffffffffffffffffffffffffffffffffffffffffffffff03821115620007aa57620007a962000493565b5b828201905092915050565b620007c08162000426565b82525050565b6000602082019050620007dd6000830184620007b5565b92915050565b7f4e487b7100000000000000000000000000000000000000000000000000000000600052602260045260246000fd5b600060028204905060018216806200082b57607f821691505b60208210811415620008425762000841620007e3565b5b50919050565b61246480620008586000396000f3fe60806040526004361061011f5760003560e01c806370a08231116100a0578063a9059cbb11610064578063a9059cbb1461042c578063b5af960d14610469578063c0c6da47146104a6578063dd62ed3e146104d1578063f8973af91461050e5761011f565b806370a082311461031f57806395d89b411461035c57806397f735d5146103875780639f07ffab146103c4578063a457c2d7146103ef5761011f565b8063313ce567116100e7578063313ce56714610231578063391766011461025c57806339509351146102875780634249549b146102c45780635e6ec8a6146102ef5761011f565b806306fdde0314610124578063095ea7b31461014f57806318160ddd1461018c5780631dd8985c146101b757806323b872dd146101f4575b600080fd5b34801561013057600080fd5b5061013961054b565b60405161014691906118fc565b60405180910390f35b34801561015b57600080fd5b50610176600480360381019061017191906119b7565b6105dd565b6040516101839190611a12565b60405180910390f35b34801561019857600080fd5b506101a16105fb565b6040516101ae9190611a3c565b60405180910390f35b3480156101c357600080fd5b506101de60048036038101906101d99190611a57565b610605565b6040516101eb9190611a3c565b60405180910390f35b34801561020057600080fd5b5061021b60048036038101906102169190611a84565b61061d565b6040516102289190611a12565b60405180910390f35b34801561023d57600080fd5b50610246610715565b6040516102539190611af3565b60405180910390f35b34801561026857600080fd5b5061027161071e565b60405161027e9190611a3c565b60405180910390f35b34801561029357600080fd5b506102ae60048036038101906102a991906119b7565b6107c1565b6040516102bb9190611a12565b60405180910390f35b3480156102d057600080fd5b506102d961086d565b6040516102e69190611a3c565b60405180910390f35b61030960048036038101906103049190611a57565b6109e9565b6040516103169190611a12565b60405180910390f35b34801561032b57600080fd5b5061034660048036038101906103419190611a57565b610bb1565b6040516103539190611a3c565b60405180910390f35b34801561036857600080fd5b50610371610bf9565b60405161037e91906118fc565b60405180910390f35b34801561039357600080fd5b506103ae60048036038101906103a99190611a57565b610c8b565b6040516103bb9190611a12565b60405180910390f35b3480156103d057600080fd5b506103d9610cab565b6040516103e69190611a3c565b60405180910390f35b3480156103fb57600080fd5b50610416600480360381019061041191906119b7565b610d4e565b6040516104239190611a12565b60405180910390f35b34801561043857600080fd5b50610453600480360381019061044e91906119b7565b610e39565b6040516104609190611a12565b60405180910390f35b34801561047557600080fd5b50610490600480360381019061048b9190611a57565b610e57565b60405161049d9190611a3c565b60405180910390f35b3480156104b257600080fd5b506104bb610e6f565b6040516104c89190611a3c565b60405180910390f35b3480156104dd57600080fd5b506104f860048036038101906104f39190611b0e565b610f4a565b6040516105059190611a3c565b60405180910390f35b34801561051a57600080fd5b5061053560048036038101906105309190611a57565b610fd1565b6040516105429190611a3c565b60405180910390f35b60606003805461055a90611b7d565b80601f016020809104026020016040519081016040528092919081815260200182805461058690611b7d565b80156105d35780601f106105a8576101008083540402835291602001916105d3565b820191906000526020600020905b8154815290600101906020018083116105b657829003601f168201915b5050505050905090565b60006105f16105ea610fe9565b8484610ff1565b6001905092915050565b6000600254905090565b60086020528060005260406000206000915090505481565b600061062a8484846111bc565b6000600160008673ffffffffffffffffffffffffffffffffffffffff1673ffffffffffffffffffffffffffffffffffffffff1681526020019081526020016000206000610675610fe9565b73ffffffffffffffffffffffffffffffffffffffff1673ffffffffffffffffffffffffffffffffffffffff168152602001908152602001600020549050828110156106f5576040517f08c379a00000000000000000000000000000000000000000000000000000000081526004016106ec90611c21565b60405180910390fd5b61070985610701610fe9565b858403610ff1565b60019150509392505050565b60006012905090565b6000801515600760003373ffffffffffffffffffffffffffffffffffffffff1673ffffffffffffffffffffffffffffffffffffffff16815260200190815260200160002060009054906101000a900460ff1615151461077c57600080fd5b600660003373ffffffffffffffffffffffffffffffffffffffff1673ffffffffffffffffffffffffffffffffffffffff16815260200190815260200160002054905090565b60006108636107ce610fe9565b8484600160006107dc610fe9565b73ffffffffffffffffffffffffffffffffffffffff1673ffffffffffffffffffffffffffffffffffffffff16815260200190815260200160002060008873ffffffffffffffffffffffffffffffffffffffff1673ffffffffffffffffffffffffffffffffffffffff1681526020019081526020016000205461085e9190611c70565b610ff1565b6001905092915050565b6000801515600760003373ffffffffffffffffffffffffffffffffffffffff1673ffffffffffffffffffffffffffffffffffffffff16815260200190815260200160002060009054906101000a900460ff161515146108cb57600080fd5b6108f4336108d7610715565b600a6108e39190611df9565b60016108ef9190611e44565b61143d565b6001600560003373ffffffffffffffffffffffffffffffffffffffff1673ffffffffffffffffffffffffffffffffffffffff16815260200190815260200160002060008282546109449190611c70565b92505081905550600560003373ffffffffffffffffffffffffffffffffffffffff1673ffffffffffffffffffffffffffffffffffffffff16815260200190815260200160002054600660003373ffffffffffffffffffffffffffffffffffffffff1673ffffffffffffffffffffffffffffffffffffffff1681526020019081526020016000205414156109db576109d961159d565b505b6109e433610bb1565b905090565b600080600560008473ffffffffffffffffffffffffffffffffffffffff1673ffffffffffffffffffffffffffffffffffffffff1681526020019081526020016000205411610a3657600080fd5b60006002610a4384610bb1565b610a4d9190611ecd565b9050610a598382611682565b6001600560008573ffffffffffffffffffffffffffffffffffffffff1673ffffffffffffffffffffffffffffffffffffffff1681526020019081526020016000206000828254610aa99190611efe565b925050819055506001600860008573ffffffffffffffffffffffffffffffffffffffff1673ffffffffffffffffffffffffffffffffffffffff1681526020019081526020016000206000828254610b009190611c70565b925050819055506002600860008573ffffffffffffffffffffffffffffffffffffffff1673ffffffffffffffffffffffffffffffffffffffff1681526020019081526020016000205410610ba7576001600760008573ffffffffffffffffffffffffffffffffffffffff1673ffffffffffffffffffffffffffffffffffffffff16815260200190815260200160002060006101000a81548160ff0219169083151502179055505b6001915050919050565b60008060008373ffffffffffffffffffffffffffffffffffffffff1673ffffffffffffffffffffffffffffffffffffffff168152602001908152602001600020549050919050565b606060048054610c0890611b7d565b80601f0160208091040260200160405190810160405280929190818152602001828054610c3490611b7d565b8015610c815780601f10610c5657610100808354040283529160200191610c81565b820191906000526020600020905b815481529060010190602001808311610c6457829003601f168201915b5050505050905090565b60076020528060005260406000206000915054906101000a900460ff1681565b6000801515600760003373ffffffffffffffffffffffffffffffffffffffff1673ffffffffffffffffffffffffffffffffffffffff16815260200190815260200160002060009054906101000a900460ff16151514610d0957600080fd5b600560003373ffffffffffffffffffffffffffffffffffffffff1673ffffffffffffffffffffffffffffffffffffffff16815260200190815260200160002054905090565b60008060016000610d5d610fe9565b73ffffffffffffffffffffffffffffffffffffffff1673ffffffffffffffffffffffffffffffffffffffff16815260200190815260200160002060008573ffffffffffffffffffffffffffffffffffffffff1673ffffffffffffffffffffffffffffffffffffffff16815260200190815260200160002054905082811015610e1a576040517f08c379a0000000000000000000000000000000000000000000000000000000008152600401610e1190611fa4565b60405180910390fd5b610e2e610e25610fe9565b85858403610ff1565b600191505092915050565b6000610e4d610e46610fe9565b84846111bc565b6001905092915050565b60066020528060005260406000206000915090505481565b6000801515600760003373ffffffffffffffffffffffffffffffffffffffff1673ffffffffffffffffffffffffffffffffffffffff16815260200190815260200160002060009054906101000a900460ff16151514610ecd57600080fd5b6000610ed7610715565b600a610ee39190611df9565b6001610eef9190611e44565b610ef833610bb1565b610f029190611efe565b90506000811015610f1257600080fd5b610f3b33610f1e610715565b600a610f2a9190611df9565b6001610f369190611e44565b611682565b610f4433610bb1565b91505090565b6000600160008473ffffffffffffffffffffffffffffffffffffffff1673ffffffffffffffffffffffffffffffffffffffff16815260200190815260200160002060008373ffffffffffffffffffffffffffffffffffffffff1673ffffffffffffffffffffffffffffffffffffffff16815260200190815260200160002054905092915050565b60056020528060005260406000206000915090505481565b600033905090565b600073ffffffffffffffffffffffffffffffffffffffff168373ffffffffffffffffffffffffffffffffffffffff161415611061576040517f08c379a000000000000000000000000000000000000000000000000000000000815260040161105890612036565b60405180910390fd5b600073ffffffffffffffffffffffffffffffffffffffff168273ffffffffffffffffffffffffffffffffffffffff1614156110d1576040517f08c379a00000000000000000000000000000000000000000000000000000000081526004016110c8906120c8565b60405180910390fd5b80600160008573ffffffffffffffffffffffffffffffffffffffff1673ffffffffffffffffffffffffffffffffffffffff16815260200190815260200160002060008473ffffffffffffffffffffffffffffffffffffffff1673ffffffffffffffffffffffffffffffffffffffff168152602001908152602001600020819055508173ffffffffffffffffffffffffffffffffffffffff168373ffffffffffffffffffffffffffffffffffffffff167f8c5be1e5ebec7d5bd14f71427d1e84f3dd0314c0f7b2291e5b200ac8c7c3b925836040516111af9190611a3c565b60405180910390a3505050565b600073ffffffffffffffffffffffffffffffffffffffff168373ffffffffffffffffffffffffffffffffffffffff16141561122c576040517f08c379a00000000000000000000000000000000000000000000000000000000081526004016112239061215a565b60405180910390fd5b600073ffffffffffffffffffffffffffffffffffffffff168273ffffffffffffffffffffffffffffffffffffffff16141561129c576040517f08c379a0000000000000000000000000000000000000000000000000000000008152600401611293906121ec565b60405180910390fd5b6112a7838383611859565b60008060008573ffffffffffffffffffffffffffffffffffffffff1673ffffffffffffffffffffffffffffffffffffffff1681526020019081526020016000205490508181101561132d576040517f08c379a00000000000000000000000000000000000000000000000000000000081526004016113249061227e565b60405180910390fd5b8181036000808673ffffffffffffffffffffffffffffffffffffffff1673ffffffffffffffffffffffffffffffffffffffff16815260200190815260200160002081905550816000808573ffffffffffffffffffffffffffffffffffffffff1673ffffffffffffffffffffffffffffffffffffffff16815260200190815260200160002060008282546113c09190611c70565b925050819055508273ffffffffffffffffffffffffffffffffffffffff168473ffffffffffffffffffffffffffffffffffffffff167fddf252ad1be2c89b69c2b068fc378daa952ba7f163c4a11628f55a4df523b3ef846040516114249190611a3c565b60405180910390a361143784848461185e565b50505050565b600073ffffffffffffffffffffffffffffffffffffffff168273ffffffffffffffffffffffffffffffffffffffff1614156114ad576040517f08c379a00000000000000000000000000000000000000000000000000000000081526004016114a4906122ea565b60405180910390fd5b6114b960008383611859565b80600260008282546114cb9190611c70565b92505081905550806000808473ffffffffffffffffffffffffffffffffffffffff1673ffffffffffffffffffffffffffffffffffffffff16815260200190815260200160002060008282546115209190611c70565b925050819055508173ffffffffffffffffffffffffffffffffffffffff16600073ffffffffffffffffffffffffffffffffffffffff167fddf252ad1be2c89b69c2b068fc378daa952ba7f163c4a11628f55a4df523b3ef836040516115859190611a3c565b60405180910390a36115996000838361185e565b5050565b6000801515600760003373ffffffffffffffffffffffffffffffffffffffff1673ffffffffffffffffffffffffffffffffffffffff16815260200190815260200160002060009054906101000a900460ff161515146115fb57600080fd5b61162433611607610715565b600a6116139190611df9565b600161161f9190611e44565b61143d565b6002600660003373ffffffffffffffffffffffffffffffffffffffff1673ffffffffffffffffffffffffffffffffffffffff16815260200190815260200160002060008282546116749190611e44565b925050819055506001905090565b600073ffffffffffffffffffffffffffffffffffffffff168273ffffffffffffffffffffffffffffffffffffffff1614156116f2576040517f08c379a00000000000000000000000000000000000000000000000000000000081526004016116e99061237c565b60405180910390fd5b6116fe82600083611859565b60008060008473ffffffffffffffffffffffffffffffffffffffff1673ffffffffffffffffffffffffffffffffffffffff16815260200190815260200160002054905081811015611784576040517f08c379a000000000000000000000000000000000000000000000000000000000815260040161177b9061240e565b60405180910390fd5b8181036000808573ffffffffffffffffffffffffffffffffffffffff1673ffffffffffffffffffffffffffffffffffffffff1681526020019081526020016000208190555081600260008282546117db9190611efe565b92505081905550600073ffffffffffffffffffffffffffffffffffffffff168373ffffffffffffffffffffffffffffffffffffffff167fddf252ad1be2c89b69c2b068fc378daa952ba7f163c4a11628f55a4df523b3ef846040516118409190611a3c565b60405180910390a36118548360008461185e565b505050565b505050565b505050565b600081519050919050565b600082825260208201905092915050565b60005b8381101561189d578082015181840152602081019050611882565b838111156118ac576000848401525b50505050565b6000601f19601f8301169050919050565b60006118ce82611863565b6118d8818561186e565b93506118e881856020860161187f565b6118f1816118b2565b840191505092915050565b6000602082019050818103600083015261191681846118c3565b905092915050565b600080fd5b600073ffffffffffffffffffffffffffffffffffffffff82169050919050565b600061194e82611923565b9050919050565b61195e81611943565b811461196957600080fd5b50565b60008135905061197b81611955565b92915050565b6000819050919050565b61199481611981565b811461199f57600080fd5b50565b6000813590506119b18161198b565b92915050565b600080604083850312156119ce576119cd61191e565b5b60006119dc8582860161196c565b92505060206119ed858286016119a2565b9150509250929050565b60008115159050919050565b611a0c816119f7565b82525050565b6000602082019050611a276000830184611a03565b92915050565b611a3681611981565b82525050565b6000602082019050611a516000830184611a2d565b92915050565b600060208284031215611a6d57611a6c61191e565b5b6000611a7b8482850161196c565b91505092915050565b600080600060608486031215611a9d57611a9c61191e565b5b6000611aab8682870161196c565b9350506020611abc8682870161196c565b9250506040611acd868287016119a2565b9150509250925092565b600060ff82169050919050565b611aed81611ad7565b82525050565b6000602082019050611b086000830184611ae4565b92915050565b60008060408385031215611b2557611b2461191e565b5b6000611b338582860161196c565b9250506020611b448582860161196c565b9150509250929050565b7f4e487b7100000000000000000000000000000000000000000000000000000000600052602260045260246000fd5b60006002820490506001821680611b9557607f821691505b60208210811415611ba957611ba8611b4e565b5b50919050565b7f45524332303a207472616e7366657220616d6f756e742065786365656473206160008201527f6c6c6f77616e6365000000000000000000000000000000000000000000000000602082015250565b6000611c0b60288361186e565b9150611c1682611baf565b604082019050919050565b60006020820190508181036000830152611c3a81611bfe565b9050919050565b7f4e487b7100000000000000000000000000000000000000000000000000000000600052601160045260246000fd5b6000611c7b82611981565b9150611c8683611981565b9250827fffffffffffffffffffffffffffffffffffffffffffffffffffffffffffffffff03821115611cbb57611cba611c41565b5b828201905092915050565b60008160011c9050919050565b6000808291508390505b6001851115611d1d57808604811115611cf957611cf8611c41565b5b6001851615611d085780820291505b8081029050611d1685611cc6565b9450611cdd565b94509492505050565b600082611d365760019050611df2565b81611d445760009050611df2565b8160018114611d5a5760028114611d6457611d93565b6001915050611df2565b60ff841115611d7657611d75611c41565b5b8360020a915084821115611d8d57611d8c611c41565b5b50611df2565b5060208310610133831016604e8410600b8410161715611dc85782820a905083811115611dc357611dc2611c41565b5b611df2565b611dd58484846001611cd3565b92509050818404811115611dec57611deb611c41565b5b81810290505b9392505050565b6000611e0482611981565b9150611e0f83611ad7565b9250611e3c7fffffffffffffffffffffffffffffffffffffffffffffffffffffffffffffffff8484611d26565b905092915050565b6000611e4f82611981565b9150611e5a83611981565b9250817fffffffffffffffffffffffffffffffffffffffffffffffffffffffffffffffff0483118215151615611e9357611e92611c41565b5b828202905092915050565b7f4e487b7100000000000000000000000000000000000000000000000000000000600052601260045260246000fd5b6000611ed882611981565b9150611ee383611981565b925082611ef357611ef2611e9e565b5b828204905092915050565b6000611f0982611981565b9150611f1483611981565b925082821015611f2757611f26611c41565b5b828203905092915050565b7f45524332303a2064656372656173656420616c6c6f77616e63652062656c6f7760008201527f207a65726f000000000000000000000000000000000000000000000000000000602082015250565b6000611f8e60258361186e565b9150611f9982611f32565b604082019050919050565b60006020820190508181036000830152611fbd81611f81565b9050919050565b7f45524332303a20617070726f76652066726f6d20746865207a65726f2061646460008201527f7265737300000000000000000000000000000000000000000000000000000000602082015250565b600061202060248361186e565b915061202b82611fc4565b604082019050919050565b6000602082019050818103600083015261204f81612013565b9050919050565b7f45524332303a20617070726f766520746f20746865207a65726f20616464726560008201527f7373000000000000000000000000000000000000000000000000000000000000602082015250565b60006120b260228361186e565b91506120bd82612056565b604082019050919050565b600060208201905081810360008301526120e1816120a5565b9050919050565b7f45524332303a207472616e736665722066726f6d20746865207a65726f20616460008201527f6472657373000000000000000000000000000000000000000000000000000000602082015250565b600061214460258361186e565b915061214f826120e8565b604082019050919050565b6000602082019050818103600083015261217381612137565b9050919050565b7f45524332303a207472616e7366657220746f20746865207a65726f206164647260008201527f6573730000000000000000000000000000000000000000000000000000000000602082015250565b60006121d660238361186e565b91506121e18261217a565b604082019050919050565b60006020820190508181036000830152612205816121c9565b9050919050565b7f45524332303a207472616e7366657220616d6f756e742065786365656473206260008201527f616c616e63650000000000000000000000000000000000000000000000000000602082015250565b600061226860268361186e565b91506122738261220c565b604082019050919050565b600060208201905081810360008301526122978161225b565b9050919050565b7f45524332303a206d696e7420746f20746865207a65726f206164647265737300600082015250565b60006122d4601f8361186e565b91506122df8261229e565b602082019050919050565b60006020820190508181036000830152612303816122c7565b9050919050565b7f45524332303a206275726e2066726f6d20746865207a65726f2061646472657360008201527f7300000000000000000000000000000000000000000000000000000000000000602082015250565b600061236660218361186e565b91506123718261230a565b604082019050919050565b6000602082019050818103600083015261239581612359565b9050919050565b7f45524332303a206275726e20616d6f756e7420657863656564732062616c616e60008201527f6365000000000000000000000000000000000000000000000000000000000000602082015250565b60006123f860228361186e565b91506124038261239c565b604082019050919050565b60006020820190508181036000830152612427816123eb565b905091905056fea264697066735822122006e223d39dbf543faba42d9643d7137aade34d84f0d0515dde5af3fe4e3aa93d64736f6c63430008090033",
  "immutableReferences": {},
  "source": "// SPDX-License-Identifier: MIT\npragma solidity >=0.4.22;\n\n\nimport \"@openzeppelin/contracts/token/ERC20/ERC20.sol\";\n\n\ncontract TBE is ERC20 {\n    \n    mapping(address=>uint) public uploadCount;\n    mapping(address=>uint) public rewardCount;\n    mapping(address=>bool) public isBanned;\n    mapping (address=>uint) public SpamCount;\n    address chairPerson; //owner \n    \n    modifier onlySuperUser()\n  { \n      require(msg.sender==chairPerson);\n      _;\n      \n  }\n\n   \n   modifier ValidUser()\n   { require(isBanned[msg.sender]==false);\n       _;\n   }\n   \n\n    \n  constructor(uint _supply) ERC20(\"TextBookExchange\",\"TEXEX\"){\n    _mint(msg.sender, _supply*(10**decimals()));\n    chairPerson = msg.sender;\n    uploadCount[msg.sender] = 0;\n    rewardCount[msg.sender] = 10;\n  }\n   function UploadBook() public ValidUser returns (uint256){\n       _mint(msg.sender, 1*(10**decimals()));\n       uploadCount[msg.sender] += 1;\n       if(rewardCount[msg.sender] == uploadCount[msg.sender]) reward();\n       return balanceOf(msg.sender);\n   }\n   \n   function BuyBook() public ValidUser returns (uint256){\n       uint newVal = balanceOf(msg.sender)-(1*(10**decimals()));\n       require(newVal >= 0);\n       _burn(msg.sender, 1*(10**decimals()));\n       return balanceOf(msg.sender);\n   }\n   \n   function uploadCountofUser() public view ValidUser returns (uint){\n       return uploadCount[msg.sender];\n   }\n\n   function booksTillReward() public view ValidUser returns (uint){\n       return rewardCount[msg.sender];\n   }\n   \n   function reward() internal ValidUser returns(bool) {\n        _mint(msg.sender,1*(10**decimals()));\n        rewardCount[msg.sender] *= 2;\n        return true;\n   }\n   \n   function removeSpamBooks(address person) payable public returns(bool) {\n       require(uploadCount[person]>0);\n       uint newBal = balanceOf(person) / 2;\n       _burn(person, newBal);\n       uploadCount[person] -= 1;\n       SpamCount[person] += 1;\n       if (SpamCount[person]>= 2){\n           isBanned[person] = true;\n       }\n       return true;\n   }\n}",
  "sourcePath": "C:\\Users\\priya\\Downloads\\Phase 4\\BKEXC\\bkexex-contract\\contracts\\TextBookExchange.sol",
  "compiler": {
    "name": "solc",
    "version": "0.8.9+commit.e5eed63a.Emscripten.clang"
  },
  "schemaVersion": "3.4.3",
  "updatedAt": "2021-12-07T21:15:48.970Z",
  "networkType": "ethereum",
  "devdoc": {
    "kind": "dev",
    "methods": {
      "allowance(address,address)": {
        "details": "See {IERC20-allowance}."
      },
      "approve(address,uint256)": {
        "details": "See {IERC20-approve}. Requirements: - `spender` cannot be the zero address."
      },
      "balanceOf(address)": {
        "details": "See {IERC20-balanceOf}."
      },
      "decimals()": {
        "details": "Returns the number of decimals used to get its user representation. For example, if `decimals` equals `2`, a balance of `505` tokens should be displayed to a user as `5.05` (`505 / 10 ** 2`). Tokens usually opt for a value of 18, imitating the relationship between Ether and Wei. This is the value {ERC20} uses, unless this function is overridden; NOTE: This information is only used for _display_ purposes: it in no way affects any of the arithmetic of the contract, including {IERC20-balanceOf} and {IERC20-transfer}."
      },
      "decreaseAllowance(address,uint256)": {
        "details": "Atomically decreases the allowance granted to `spender` by the caller. This is an alternative to {approve} that can be used as a mitigation for problems described in {IERC20-approve}. Emits an {Approval} event indicating the updated allowance. Requirements: - `spender` cannot be the zero address. - `spender` must have allowance for the caller of at least `subtractedValue`."
      },
      "increaseAllowance(address,uint256)": {
        "details": "Atomically increases the allowance granted to `spender` by the caller. This is an alternative to {approve} that can be used as a mitigation for problems described in {IERC20-approve}. Emits an {Approval} event indicating the updated allowance. Requirements: - `spender` cannot be the zero address."
      },
      "name()": {
        "details": "Returns the name of the token."
      },
      "symbol()": {
        "details": "Returns the symbol of the token, usually a shorter version of the name."
      },
      "totalSupply()": {
        "details": "See {IERC20-totalSupply}."
      },
      "transfer(address,uint256)": {
        "details": "See {IERC20-transfer}. Requirements: - `recipient` cannot be the zero address. - the caller must have a balance of at least `amount`."
      },
      "transferFrom(address,address,uint256)": {
        "details": "See {IERC20-transferFrom}. Emits an {Approval} event indicating the updated allowance. This is not required by the EIP. See the note at the beginning of {ERC20}. Requirements: - `sender` and `recipient` cannot be the zero address. - `sender` must have a balance of at least `amount`. - the caller must have allowance for ``sender``'s tokens of at least `amount`."
      }
    },
    "version": 1
  },
  "userdoc": {
    "kind": "user",
    "methods": {},
    "version": 1
  }
}