{
  "contractName": "TBE",
  "abi": [
    {
      "inputs": [
        {
          "internalType": "uint256",
          "name": "_supply",
          "type": "uint256"
        }
      ],
      "stateMutability": "nonpayable",
      "type": "constructor"
    },
    {
      "anonymous": false,
      "inputs": [
        {
          "indexed": true,
          "internalType": "address",
          "name": "owner",
          "type": "address"
        },
        {
          "indexed": true,
          "internalType": "address",
          "name": "spender",
          "type": "address"
        },
        {
          "indexed": false,
          "internalType": "uint256",
          "name": "value",
          "type": "uint256"
        }
      ],
      "name": "Approval",
      "type": "event"
    },
    {
      "anonymous": false,
      "inputs": [
        {
          "indexed": true,
          "internalType": "address",
          "name": "from",
          "type": "address"
        },
        {
          "indexed": true,
          "internalType": "address",
          "name": "to",
          "type": "address"
        },
        {
          "indexed": false,
          "internalType": "uint256",
          "name": "value",
          "type": "uint256"
        }
      ],
      "name": "Transfer",
      "type": "event"
    },
    {
      "inputs": [
        {
          "internalType": "address",
          "name": "owner",
          "type": "address"
        },
        {
          "internalType": "address",
          "name": "spender",
          "type": "address"
        }
      ],
      "name": "allowance",
      "outputs": [
        {
          "internalType": "uint256",
          "name": "",
          "type": "uint256"
        }
      ],
      "stateMutability": "view",
      "type": "function",
      "constant": true
    },
    {
      "inputs": [
        {
          "internalType": "address",
          "name": "spender",
          "type": "address"
        },
        {
          "internalType": "uint256",
          "name": "amount",
          "type": "uint256"
        }
      ],
      "name": "approve",
      "outputs": [
        {
          "internalType": "bool",
          "name": "",
          "type": "bool"
        }
      ],
      "stateMutability": "nonpayable",
      "type": "function"
    },
    {
      "inputs": [
        {
          "internalType": "address",
          "name": "account",
          "type": "address"
        }
      ],
      "name": "balanceOf",
      "outputs": [
        {
          "internalType": "uint256",
          "name": "",
          "type": "uint256"
        }
      ],
      "stateMutability": "view",
      "type": "function",
      "constant": true
    },
    {
      "inputs": [],
      "name": "decimals",
      "outputs": [
        {
          "internalType": "uint8",
          "name": "",
          "type": "uint8"
        }
      ],
      "stateMutability": "view",
      "type": "function",
      "constant": true
    },
    {
      "inputs": [
        {
          "internalType": "address",
          "name": "spender",
          "type": "address"
        },
        {
          "internalType": "uint256",
          "name": "subtractedValue",
          "type": "uint256"
        }
      ],
      "name": "decreaseAllowance",
      "outputs": [
        {
          "internalType": "bool",
          "name": "",
          "type": "bool"
        }
      ],
      "stateMutability": "nonpayable",
      "type": "function"
    },
    {
      "inputs": [
        {
          "internalType": "address",
          "name": "spender",
          "type": "address"
        },
        {
          "internalType": "uint256",
          "name": "addedValue",
          "type": "uint256"
        }
      ],
      "name": "increaseAllowance",
      "outputs": [
        {
          "internalType": "bool",
          "name": "",
          "type": "bool"
        }
      ],
      "stateMutability": "nonpayable",
      "type": "function"
    },
    {
      "inputs": [],
      "name": "name",
      "outputs": [
        {
          "internalType": "string",
          "name": "",
          "type": "string"
        }
      ],
      "stateMutability": "view",
      "type": "function",
      "constant": true
    },
    {
      "inputs": [
        {
          "internalType": "address",
          "name": "",
          "type": "address"
        }
      ],
      "name": "rewardCount",
      "outputs": [
        {
          "internalType": "uint256",
          "name": "",
          "type": "uint256"
        }
      ],
      "stateMutability": "view",
      "type": "function",
      "constant": true
    },
    {
      "inputs": [],
      "name": "symbol",
      "outputs": [
        {
          "internalType": "string",
          "name": "",
          "type": "string"
        }
      ],
      "stateMutability": "view",
      "type": "function",
      "constant": true
    },
    {
      "inputs": [],
      "name": "totalSupply",
      "outputs": [
        {
          "internalType": "uint256",
          "name": "",
          "type": "uint256"
        }
      ],
      "stateMutability": "view",
      "type": "function",
      "constant": true
    },
    {
      "inputs": [
        {
          "internalType": "address",
          "name": "recipient",
          "type": "address"
        },
        {
          "internalType": "uint256",
          "name": "amount",
          "type": "uint256"
        }
      ],
      "name": "transfer",
      "outputs": [
        {
          "internalType": "bool",
          "name": "",
          "type": "bool"
        }
      ],
      "stateMutability": "nonpayable",
      "type": "function"
    },
    {
      "inputs": [
        {
          "internalType": "address",
          "name": "sender",
          "type": "address"
        },
        {
          "internalType": "address",
          "name": "recipient",
          "type": "address"
        },
        {
          "internalType": "uint256",
          "name": "amount",
          "type": "uint256"
        }
      ],
      "name": "transferFrom",
      "outputs": [
        {
          "internalType": "bool",
          "name": "",
          "type": "bool"
        }
      ],
      "stateMutability": "nonpayable",
      "type": "function"
    },
    {
      "inputs": [
        {
          "internalType": "address",
          "name": "",
          "type": "address"
        }
      ],
      "name": "uploadCount",
      "outputs": [
        {
          "internalType": "uint256",
          "name": "",
          "type": "uint256"
        }
      ],
      "stateMutability": "view",
      "type": "function",
      "constant": true
    },
    {
      "inputs": [],
      "name": "UploadBook",
      "outputs": [
        {
          "internalType": "uint256",
          "name": "",
          "type": "uint256"
        }
      ],
      "stateMutability": "nonpayable",
      "type": "function"
    },
    {
      "inputs": [],
      "name": "BuyBook",
      "outputs": [
        {
          "internalType": "uint256",
          "name": "",
          "type": "uint256"
        }
      ],
      "stateMutability": "nonpayable",
      "type": "function"
    },
    {
      "inputs": [],
      "name": "uploadCountofUser",
      "outputs": [
        {
          "internalType": "uint256",
          "name": "",
          "type": "uint256"
        }
      ],
      "stateMutability": "view",
      "type": "function",
      "constant": true
    }
  ],
  "bytecode": "0x60806040523480156200001157600080fd5b506040516200264338038062002643833981810160405281019062000037919062000420565b6040518060400160405280601081526020017f54657874426f6f6b45786368616e6765000000000000000000000000000000008152506040518060400160405280600581526020017f54455845580000000000000000000000000000000000000000000000000000008152508160039080519060200190620000bb92919062000330565b508060049080519060200190620000d492919062000330565b5050506200011333620000ec620001a460201b60201c565b600a620000fa9190620005e2565b8362000107919062000633565b620001ad60201b60201c565b6000600560003373ffffffffffffffffffffffffffffffffffffffff1673ffffffffffffffffffffffffffffffffffffffff16815260200190815260200160002081905550600a600660003373ffffffffffffffffffffffffffffffffffffffff1673ffffffffffffffffffffffffffffffffffffffff168152602001908152602001600020819055505062000807565b60006012905090565b600073ffffffffffffffffffffffffffffffffffffffff168273ffffffffffffffffffffffffffffffffffffffff16141562000220576040517f08c379a00000000000000000000000000000000000000000000000000000000081526004016200021790620006f5565b60405180910390fd5b62000234600083836200032660201b60201c565b806002600082825462000248919062000717565b92505081905550806000808473ffffffffffffffffffffffffffffffffffffffff1673ffffffffffffffffffffffffffffffffffffffff16815260200190815260200160002060008282546200029f919062000717565b925050819055508173ffffffffffffffffffffffffffffffffffffffff16600073ffffffffffffffffffffffffffffffffffffffff167fddf252ad1be2c89b69c2b068fc378daa952ba7f163c4a11628f55a4df523b3ef8360405162000306919062000785565b60405180910390a362000322600083836200032b60201b60201c565b5050565b505050565b505050565b8280546200033e90620007d1565b90600052602060002090601f016020900481019282620003625760008555620003ae565b82601f106200037d57805160ff1916838001178555620003ae565b82800160010185558215620003ae579182015b82811115620003ad57825182559160200191906001019062000390565b5b509050620003bd9190620003c1565b5090565b5b80821115620003dc576000816000905550600101620003c2565b5090565b600080fd5b6000819050919050565b620003fa81620003e5565b81146200040657600080fd5b50565b6000815190506200041a81620003ef565b92915050565b600060208284031215620004395762000438620003e0565b5b6000620004498482850162000409565b91505092915050565b7f4e487b7100000000000000000000000000000000000000000000000000000000600052601160045260246000fd5b60008160011c9050919050565b6000808291508390505b6001851115620004e057808604811115620004b857620004b762000452565b5b6001851615620004c85780820291505b8081029050620004d88562000481565b945062000498565b94509492505050565b600082620004fb5760019050620005ce565b816200050b5760009050620005ce565b81600181146200052457600281146200052f5762000565565b6001915050620005ce565b60ff84111562000544576200054362000452565b5b8360020a9150848211156200055e576200055d62000452565b5b50620005ce565b5060208310610133831016604e8410600b84101617156200059f5782820a90508381111562000599576200059862000452565b5b620005ce565b620005ae84848460016200048e565b92509050818404811115620005c857620005c762000452565b5b81810290505b9392505050565b600060ff82169050919050565b6000620005ef82620003e5565b9150620005fc83620005d5565b92506200062b7fffffffffffffffffffffffffffffffffffffffffffffffffffffffffffffffff8484620004e9565b905092915050565b60006200064082620003e5565b91506200064d83620003e5565b9250817fffffffffffffffffffffffffffffffffffffffffffffffffffffffffffffffff048311821515161562000689576200068862000452565b5b828202905092915050565b600082825260208201905092915050565b7f45524332303a206d696e7420746f20746865207a65726f206164647265737300600082015250565b6000620006dd601f8362000694565b9150620006ea82620006a5565b602082019050919050565b600060208201905081810360008301526200071081620006ce565b9050919050565b60006200072482620003e5565b91506200073183620003e5565b9250827fffffffffffffffffffffffffffffffffffffffffffffffffffffffffffffffff0382111562000769576200076862000452565b5b828201905092915050565b6200077f81620003e5565b82525050565b60006020820190506200079c600083018462000774565b92915050565b7f4e487b7100000000000000000000000000000000000000000000000000000000600052602260045260246000fd5b60006002820490506001821680620007ea57607f821691505b60208210811415620008015762000800620007a2565b5b50919050565b611e2c80620008176000396000f3fe608060405234801561001057600080fd5b50600436106101005760003560e01c806395d89b4111610097578063b5af960d11610066578063b5af960d146102d9578063c0c6da4714610309578063dd62ed3e14610327578063f8973af91461035757610100565b806395d89b411461023d5780639f07ffab1461025b578063a457c2d714610279578063a9059cbb146102a957610100565b8063313ce567116100d3578063313ce567146101a157806339509351146101bf5780634249549b146101ef57806370a082311461020d57610100565b806306fdde0314610105578063095ea7b31461012357806318160ddd1461015357806323b872dd14610171575b600080fd5b61010d610387565b60405161011a9190611324565b60405180910390f35b61013d600480360381019061013891906113df565b610419565b60405161014a919061143a565b60405180910390f35b61015b610437565b6040516101689190611464565b60405180910390f35b61018b6004803603810190610186919061147f565b610441565b604051610198919061143a565b60405180910390f35b6101a9610539565b6040516101b691906114ee565b60405180910390f35b6101d960048036038101906101d491906113df565b610542565b6040516101e6919061143a565b60405180910390f35b6101f76105ee565b6040516102049190611464565b60405180910390f35b61022760048036038101906102229190611509565b61070e565b6040516102349190611464565b60405180910390f35b610245610756565b6040516102529190611324565b60405180910390f35b6102636107e8565b6040516102709190611464565b60405180910390f35b610293600480360381019061028e91906113df565b61082f565b6040516102a0919061143a565b60405180910390f35b6102c360048036038101906102be91906113df565b61091a565b6040516102d0919061143a565b60405180910390f35b6102f360048036038101906102ee9190611509565b610938565b6040516103009190611464565b60405180910390f35b610311610950565b60405161031e9190611464565b60405180910390f35b610341600480360381019061033c9190611536565b6109ce565b60405161034e9190611464565b60405180910390f35b610371600480360381019061036c9190611509565b610a55565b60405161037e9190611464565b60405180910390f35b606060038054610396906115a5565b80601f01602080910402602001604051908101604052809291908181526020018280546103c2906115a5565b801561040f5780601f106103e45761010080835404028352916020019161040f565b820191906000526020600020905b8154815290600101906020018083116103f257829003601f168201915b5050505050905090565b600061042d610426610a6d565b8484610a75565b6001905092915050565b6000600254905090565b600061044e848484610c40565b6000600160008673ffffffffffffffffffffffffffffffffffffffff1673ffffffffffffffffffffffffffffffffffffffff1681526020019081526020016000206000610499610a6d565b73ffffffffffffffffffffffffffffffffffffffff1673ffffffffffffffffffffffffffffffffffffffff16815260200190815260200160002054905082811015610519576040517f08c379a000000000000000000000000000000000000000000000000000000000815260040161051090611649565b60405180910390fd5b61052d85610525610a6d565b858403610a75565b60019150509392505050565b60006012905090565b60006105e461054f610a6d565b84846001600061055d610a6d565b73ffffffffffffffffffffffffffffffffffffffff1673ffffffffffffffffffffffffffffffffffffffff16815260200190815260200160002060008873ffffffffffffffffffffffffffffffffffffffff1673ffffffffffffffffffffffffffffffffffffffff168152602001908152602001600020546105df9190611698565b610a75565b6001905092915050565b6000610619336105fc610539565b600a6106089190611821565b6001610614919061186c565b610ec1565b6001600560003373ffffffffffffffffffffffffffffffffffffffff1673ffffffffffffffffffffffffffffffffffffffff16815260200190815260200160002060008282546106699190611698565b92505081905550600560003373ffffffffffffffffffffffffffffffffffffffff1673ffffffffffffffffffffffffffffffffffffffff16815260200190815260200160002054600660003373ffffffffffffffffffffffffffffffffffffffff1673ffffffffffffffffffffffffffffffffffffffff168152602001908152602001600020541415610700576106fe611021565b505b6107093361070e565b905090565b60008060008373ffffffffffffffffffffffffffffffffffffffff1673ffffffffffffffffffffffffffffffffffffffff168152602001908152602001600020549050919050565b606060048054610765906115a5565b80601f0160208091040260200160405190810160405280929190818152602001828054610791906115a5565b80156107de5780601f106107b3576101008083540402835291602001916107de565b820191906000526020600020905b8154815290600101906020018083116107c157829003601f168201915b5050505050905090565b6000600560003373ffffffffffffffffffffffffffffffffffffffff1673ffffffffffffffffffffffffffffffffffffffff16815260200190815260200160002054905090565b6000806001600061083e610a6d565b73ffffffffffffffffffffffffffffffffffffffff1673ffffffffffffffffffffffffffffffffffffffff16815260200190815260200160002060008573ffffffffffffffffffffffffffffffffffffffff1673ffffffffffffffffffffffffffffffffffffffff168152602001908152602001600020549050828110156108fb576040517f08c379a00000000000000000000000000000000000000000000000000000000081526004016108f290611938565b60405180910390fd5b61090f610906610a6d565b85858403610a75565b600191505092915050565b600061092e610927610a6d565b8484610c40565b6001905092915050565b60066020528060005260406000206000915090505481565b60008061095b610539565b600a6109679190611821565b6001610973919061186c565b61097c3361070e565b6109869190611958565b9050600081101561099657600080fd5b6109bf336109a2610539565b600a6109ae9190611821565b60016109ba919061186c565b6110aa565b6109c83361070e565b91505090565b6000600160008473ffffffffffffffffffffffffffffffffffffffff1673ffffffffffffffffffffffffffffffffffffffff16815260200190815260200160002060008373ffffffffffffffffffffffffffffffffffffffff1673ffffffffffffffffffffffffffffffffffffffff16815260200190815260200160002054905092915050565b60056020528060005260406000206000915090505481565b600033905090565b600073ffffffffffffffffffffffffffffffffffffffff168373ffffffffffffffffffffffffffffffffffffffff161415610ae5576040517f08c379a0000000000000000000000000000000000000000000000000000000008152600401610adc906119fe565b60405180910390fd5b600073ffffffffffffffffffffffffffffffffffffffff168273ffffffffffffffffffffffffffffffffffffffff161415610b55576040517f08c379a0000000000000000000000000000000000000000000000000000000008152600401610b4c90611a90565b60405180910390fd5b80600160008573ffffffffffffffffffffffffffffffffffffffff1673ffffffffffffffffffffffffffffffffffffffff16815260200190815260200160002060008473ffffffffffffffffffffffffffffffffffffffff1673ffffffffffffffffffffffffffffffffffffffff168152602001908152602001600020819055508173ffffffffffffffffffffffffffffffffffffffff168373ffffffffffffffffffffffffffffffffffffffff167f8c5be1e5ebec7d5bd14f71427d1e84f3dd0314c0f7b2291e5b200ac8c7c3b92583604051610c339190611464565b60405180910390a3505050565b600073ffffffffffffffffffffffffffffffffffffffff168373ffffffffffffffffffffffffffffffffffffffff161415610cb0576040517f08c379a0000000000000000000000000000000000000000000000000000000008152600401610ca790611b22565b60405180910390fd5b600073ffffffffffffffffffffffffffffffffffffffff168273ffffffffffffffffffffffffffffffffffffffff161415610d20576040517f08c379a0000000000000000000000000000000000000000000000000000000008152600401610d1790611bb4565b60405180910390fd5b610d2b838383611281565b60008060008573ffffffffffffffffffffffffffffffffffffffff1673ffffffffffffffffffffffffffffffffffffffff16815260200190815260200160002054905081811015610db1576040517f08c379a0000000000000000000000000000000000000000000000000000000008152600401610da890611c46565b60405180910390fd5b8181036000808673ffffffffffffffffffffffffffffffffffffffff1673ffffffffffffffffffffffffffffffffffffffff16815260200190815260200160002081905550816000808573ffffffffffffffffffffffffffffffffffffffff1673ffffffffffffffffffffffffffffffffffffffff1681526020019081526020016000206000828254610e449190611698565b925050819055508273ffffffffffffffffffffffffffffffffffffffff168473ffffffffffffffffffffffffffffffffffffffff167fddf252ad1be2c89b69c2b068fc378daa952ba7f163c4a11628f55a4df523b3ef84604051610ea89190611464565b60405180910390a3610ebb848484611286565b50505050565b600073ffffffffffffffffffffffffffffffffffffffff168273ffffffffffffffffffffffffffffffffffffffff161415610f31576040517f08c379a0000000000000000000000000000000000000000000000000000000008152600401610f2890611cb2565b60405180910390fd5b610f3d60008383611281565b8060026000828254610f4f9190611698565b92505081905550806000808473ffffffffffffffffffffffffffffffffffffffff1673ffffffffffffffffffffffffffffffffffffffff1681526020019081526020016000206000828254610fa49190611698565b925050819055508173ffffffffffffffffffffffffffffffffffffffff16600073ffffffffffffffffffffffffffffffffffffffff167fddf252ad1be2c89b69c2b068fc378daa952ba7f163c4a11628f55a4df523b3ef836040516110099190611464565b60405180910390a361101d60008383611286565b5050565b600061104c3361102f610539565b600a61103b9190611821565b6001611047919061186c565b610ec1565b6002600660003373ffffffffffffffffffffffffffffffffffffffff1673ffffffffffffffffffffffffffffffffffffffff168152602001908152602001600020600082825461109c919061186c565b925050819055506001905090565b600073ffffffffffffffffffffffffffffffffffffffff168273ffffffffffffffffffffffffffffffffffffffff16141561111a576040517f08c379a000000000000000000000000000000000000000000000000000000000815260040161111190611d44565b60405180910390fd5b61112682600083611281565b60008060008473ffffffffffffffffffffffffffffffffffffffff1673ffffffffffffffffffffffffffffffffffffffff168152602001908152602001600020549050818110156111ac576040517f08c379a00000000000000000000000000000000000000000000000000000000081526004016111a390611dd6565b60405180910390fd5b8181036000808573ffffffffffffffffffffffffffffffffffffffff1673ffffffffffffffffffffffffffffffffffffffff1681526020019081526020016000208190555081600260008282546112039190611958565b92505081905550600073ffffffffffffffffffffffffffffffffffffffff168373ffffffffffffffffffffffffffffffffffffffff167fddf252ad1be2c89b69c2b068fc378daa952ba7f163c4a11628f55a4df523b3ef846040516112689190611464565b60405180910390a361127c83600084611286565b505050565b505050565b505050565b600081519050919050565b600082825260208201905092915050565b60005b838110156112c55780820151818401526020810190506112aa565b838111156112d4576000848401525b50505050565b6000601f19601f8301169050919050565b60006112f68261128b565b6113008185611296565b93506113108185602086016112a7565b611319816112da565b840191505092915050565b6000602082019050818103600083015261133e81846112eb565b905092915050565b600080fd5b600073ffffffffffffffffffffffffffffffffffffffff82169050919050565b60006113768261134b565b9050919050565b6113868161136b565b811461139157600080fd5b50565b6000813590506113a38161137d565b92915050565b6000819050919050565b6113bc816113a9565b81146113c757600080fd5b50565b6000813590506113d9816113b3565b92915050565b600080604083850312156113f6576113f5611346565b5b600061140485828601611394565b9250506020611415858286016113ca565b9150509250929050565b60008115159050919050565b6114348161141f565b82525050565b600060208201905061144f600083018461142b565b92915050565b61145e816113a9565b82525050565b60006020820190506114796000830184611455565b92915050565b60008060006060848603121561149857611497611346565b5b60006114a686828701611394565b93505060206114b786828701611394565b92505060406114c8868287016113ca565b9150509250925092565b600060ff82169050919050565b6114e8816114d2565b82525050565b600060208201905061150360008301846114df565b92915050565b60006020828403121561151f5761151e611346565b5b600061152d84828501611394565b91505092915050565b6000806040838503121561154d5761154c611346565b5b600061155b85828601611394565b925050602061156c85828601611394565b9150509250929050565b7f4e487b7100000000000000000000000000000000000000000000000000000000600052602260045260246000fd5b600060028204905060018216806115bd57607f821691505b602082108114156115d1576115d0611576565b5b50919050565b7f45524332303a207472616e7366657220616d6f756e742065786365656473206160008201527f6c6c6f77616e6365000000000000000000000000000000000000000000000000602082015250565b6000611633602883611296565b915061163e826115d7565b604082019050919050565b6000602082019050818103600083015261166281611626565b9050919050565b7f4e487b7100000000000000000000000000000000000000000000000000000000600052601160045260246000fd5b60006116a3826113a9565b91506116ae836113a9565b9250827fffffffffffffffffffffffffffffffffffffffffffffffffffffffffffffffff038211156116e3576116e2611669565b5b828201905092915050565b60008160011c9050919050565b6000808291508390505b60018511156117455780860481111561172157611720611669565b5b60018516156117305780820291505b808102905061173e856116ee565b9450611705565b94509492505050565b60008261175e576001905061181a565b8161176c576000905061181a565b8160018114611782576002811461178c576117bb565b600191505061181a565b60ff84111561179e5761179d611669565b5b8360020a9150848211156117b5576117b4611669565b5b5061181a565b5060208310610133831016604e8410600b84101617156117f05782820a9050838111156117eb576117ea611669565b5b61181a565b6117fd84848460016116fb565b9250905081840481111561181457611813611669565b5b81810290505b9392505050565b600061182c826113a9565b9150611837836114d2565b92506118647fffffffffffffffffffffffffffffffffffffffffffffffffffffffffffffffff848461174e565b905092915050565b6000611877826113a9565b9150611882836113a9565b9250817fffffffffffffffffffffffffffffffffffffffffffffffffffffffffffffffff04831182151516156118bb576118ba611669565b5b828202905092915050565b7f45524332303a2064656372656173656420616c6c6f77616e63652062656c6f7760008201527f207a65726f000000000000000000000000000000000000000000000000000000602082015250565b6000611922602583611296565b915061192d826118c6565b604082019050919050565b6000602082019050818103600083015261195181611915565b9050919050565b6000611963826113a9565b915061196e836113a9565b92508282101561198157611980611669565b5b828203905092915050565b7f45524332303a20617070726f76652066726f6d20746865207a65726f2061646460008201527f7265737300000000000000000000000000000000000000000000000000000000602082015250565b60006119e8602483611296565b91506119f38261198c565b604082019050919050565b60006020820190508181036000830152611a17816119db565b9050919050565b7f45524332303a20617070726f766520746f20746865207a65726f20616464726560008201527f7373000000000000000000000000000000000000000000000000000000000000602082015250565b6000611a7a602283611296565b9150611a8582611a1e565b604082019050919050565b60006020820190508181036000830152611aa981611a6d565b9050919050565b7f45524332303a207472616e736665722066726f6d20746865207a65726f20616460008201527f6472657373000000000000000000000000000000000000000000000000000000602082015250565b6000611b0c602583611296565b9150611b1782611ab0565b604082019050919050565b60006020820190508181036000830152611b3b81611aff565b9050919050565b7f45524332303a207472616e7366657220746f20746865207a65726f206164647260008201527f6573730000000000000000000000000000000000000000000000000000000000602082015250565b6000611b9e602383611296565b9150611ba982611b42565b604082019050919050565b60006020820190508181036000830152611bcd81611b91565b9050919050565b7f45524332303a207472616e7366657220616d6f756e742065786365656473206260008201527f616c616e63650000000000000000000000000000000000000000000000000000602082015250565b6000611c30602683611296565b9150611c3b82611bd4565b604082019050919050565b60006020820190508181036000830152611c5f81611c23565b9050919050565b7f45524332303a206d696e7420746f20746865207a65726f206164647265737300600082015250565b6000611c9c601f83611296565b9150611ca782611c66565b602082019050919050565b60006020820190508181036000830152611ccb81611c8f565b9050919050565b7f45524332303a206275726e2066726f6d20746865207a65726f2061646472657360008201527f7300000000000000000000000000000000000000000000000000000000000000602082015250565b6000611d2e602183611296565b9150611d3982611cd2565b604082019050919050565b60006020820190508181036000830152611d5d81611d21565b9050919050565b7f45524332303a206275726e20616d6f756e7420657863656564732062616c616e60008201527f6365000000000000000000000000000000000000000000000000000000000000602082015250565b6000611dc0602283611296565b9150611dcb82611d64565b604082019050919050565b60006020820190508181036000830152611def81611db3565b905091905056fea26469706673582212201fe2d554f7091ff0a1addfe6eca7dbf46cf6a426a2994e14c2a5d4d1828d3d5a64736f6c63430008090033",
  "immutableReferences": {},
  "source": "\npragma solidity >=0.4.22;\n\nimport \"@openzeppelin/contracts/token/ERC20/ERC20.sol\";\n\n\ncontract TBE is ERC20 {\n    \n    mapping(address => uint) public uploadCount;\n    mapping(address=>uint) public rewardCount;\n\n  constructor(uint _supply) ERC20(\"TextBookExchange\",\"TEXEX\"){\n    _mint(msg.sender, _supply *(10**decimals())); \n    uploadCount[msg.sender] = 0;\n    rewardCount[msg.sender] = 10;\n  }\n  function UploadBook() public returns (uint256){\n       _mint(msg.sender, 1*(10**decimals()));\n       uploadCount[msg.sender] += 1;\n       if(rewardCount[msg.sender] == uploadCount[msg.sender]) reward();\n       return balanceOf(msg.sender);\n  }\n   \n  function BuyBook() public returns (uint256){\n       uint newVal = balanceOf(msg.sender)-(1*(10**decimals()));\n       require(newVal >= 0);\n       _burn(msg.sender, 1*(10**decimals()));\n       return balanceOf(msg.sender);\n  }\n   \n  function uploadCountofUser() public view returns (uint){\n       return uploadCount[msg.sender];\n  }\n   \n  function reward() internal returns(bool success) {\n        _mint(msg.sender,1*(10**decimals()));\n        rewardCount[msg.sender] *= 2;\n        return true;\n  }\n}",
  "sourcePath": "C:\\Users\\priya\\solidity\\BKEXC\\contracts\\TextBookExchange.sol",
  "compiler": {
    "name": "solc",
    "version": "0.8.9+commit.e5eed63a.Emscripten.clang"
  },
  "schemaVersion": "3.4.3",
  "updatedAt": "2021-11-18T23:28:49.002Z",
  "networkType": "ethereum",
  "devdoc": {
    "kind": "dev",
    "methods": {
      "allowance(address,address)": {
        "details": "See {IERC20-allowance}."
      },
      "approve(address,uint256)": {
        "details": "See {IERC20-approve}. Requirements: - `spender` cannot be the zero address."
      },
      "balanceOf(address)": {
        "details": "See {IERC20-balanceOf}."
      },
      "decimals()": {
        "details": "Returns the number of decimals used to get its user representation. For example, if `decimals` equals `2`, a balance of `505` tokens should be displayed to a user as `5.05` (`505 / 10 ** 2`). Tokens usually opt for a value of 18, imitating the relationship between Ether and Wei. This is the value {ERC20} uses, unless this function is overridden; NOTE: This information is only used for _display_ purposes: it in no way affects any of the arithmetic of the contract, including {IERC20-balanceOf} and {IERC20-transfer}."
      },
      "decreaseAllowance(address,uint256)": {
        "details": "Atomically decreases the allowance granted to `spender` by the caller. This is an alternative to {approve} that can be used as a mitigation for problems described in {IERC20-approve}. Emits an {Approval} event indicating the updated allowance. Requirements: - `spender` cannot be the zero address. - `spender` must have allowance for the caller of at least `subtractedValue`."
      },
      "increaseAllowance(address,uint256)": {
        "details": "Atomically increases the allowance granted to `spender` by the caller. This is an alternative to {approve} that can be used as a mitigation for problems described in {IERC20-approve}. Emits an {Approval} event indicating the updated allowance. Requirements: - `spender` cannot be the zero address."
      },
      "name()": {
        "details": "Returns the name of the token."
      },
      "symbol()": {
        "details": "Returns the symbol of the token, usually a shorter version of the name."
      },
      "totalSupply()": {
        "details": "See {IERC20-totalSupply}."
      },
      "transfer(address,uint256)": {
        "details": "See {IERC20-transfer}. Requirements: - `recipient` cannot be the zero address. - the caller must have a balance of at least `amount`."
      },
      "transferFrom(address,address,uint256)": {
        "details": "See {IERC20-transferFrom}. Emits an {Approval} event indicating the updated allowance. This is not required by the EIP. See the note at the beginning of {ERC20}. Requirements: - `sender` and `recipient` cannot be the zero address. - `sender` must have a balance of at least `amount`. - the caller must have allowance for ``sender``'s tokens of at least `amount`."
      }
    },
    "version": 1
  },
  "userdoc": {
    "kind": "user",
    "methods": {},
    "version": 1
  }
}